{"abi":[{"type":"function","name":"batchTest","inputs":[{"name":"target","type":"address","internalType":"address"},{"name":"quantities","type":"uint256[]","internalType":"uint256[]"}],"outputs":[{"name":"results","type":"tuple[]","internalType":"struct BatchGradientTest.TestResult[]","components":[{"name":"success","type":"bool","internalType":"bool"},{"name":"returnData","type":"bytes","internalType":"bytes"},{"name":"gasUsed","type":"uint256","internalType":"uint256"}]}],"stateMutability":"nonpayable"}],"bytecode":{"object":"0x6080806040523460155761032d908161001a8239f35b5f80fdfe60806040526004361015610011575f80fd5b5f3560e01c630920556714610024575f80fd5b34610275576040366003190112610275576004356001600160a01b03811681036102755760243567ffffffffffffffff811161027557366023820112156102755780600401359067ffffffffffffffff8211610275573660248360051b8301011161027557610092826102b7565b926100a06040519485610295565b828452601f196100af846102b7565b015f5b81811061024b5750505f5b838110156101b057604051905f806020840181815262ffffff60e81b60248560051b8901013560e81b166021860152600485526100fb602486610295565b5a94519082875af13d156101a8573d9267ffffffffffffffff84116101945760405193610132601f8201601f191660200186610295565b84523d5f602086013e5b5a8103908111610180576001936040519261015684610279565b151583526020830152604082015261016e82886102cf565b5261017981876102cf565b50016100bd565b634e487b7160e01b5f52601160045260245ffd5b634e487b7160e01b5f52604160045260245ffd5b60609261013c565b846040518091602082016020835281518091526040830190602060408260051b8601019301915f905b8282106101e857505050500390f35b9193600191939550602060808192603f198a82030186528260408a51805115158452828101516060848601528051938491826060880152018686015e5f85848601015201516040830152601f8019910116010196019201920185949391926101d9565b60209060405161025a81610279565b5f81526060838201525f6040820152828289010152016100b2565b5f80fd5b6060810190811067ffffffffffffffff82111761019457604052565b90601f8019910116810190811067ffffffffffffffff82111761019457604052565b67ffffffffffffffff81116101945760051b60200190565b80518210156102e35760209160051b010190565b634e487b7160e01b5f52603260045260245ffdfea264697066735822122097357995273927b2023bb4a4c54b557b037a0627650be935bb72b8d6b5af52f464736f6c634300081e0033","linkReferences":{}},"methodIdentifiers":{"batchTest(address,uint256[])":"09205567"},"id":0}