{"abi":[{"type":"function","name":"batchTest","inputs":[{"name":"target","type":"address","internalType":"address"},{"name":"quantities","type":"uint256[]","internalType":"uint256[]"}],"outputs":[{"name":"results","type":"tuple[]","internalType":"struct BatchGradientTest.TestResult[]","components":[{"name":"success","type":"bool","internalType":"bool"},{"name":"returnData","type":"bytes","internalType":"bytes"},{"name":"gasUsed","type":"uint256","internalType":"uint256"}]}],"stateMutability":"nonpayable"}],"bytecode":{"object":"0x60808060405234601557610452908161001a8239f35b5f80fdfe60806040526004361015610011575f80fd5b5f3560e01c630920556714610024575f80fd5b346103625760407ffffffffffffffffffffffffffffffffffffffffffffffffffffffffffffffffc3601126103625760043573ffffffffffffffffffffffffffffffffffffffff811681036103625760243567ffffffffffffffff811161036257366023820112156103625780600401359067ffffffffffffffff8211610362573660248360051b83010111610362576100bd826103c3565b926100cb6040519485610382565b8284527fffffffffffffffffffffffffffffffffffffffffffffffffffffffffffffffe06100f8846103c3565b015f5b8181106103385750505f5b8381101561026357604051905f80602084018181527fffffff000000000000000000000000000000000000000000000000000000000060248560051b8901013560e81b1660218601526004855261015e602486610382565b5a94519082875af13d1561025b573d9267ffffffffffffffff841161022e57604051936101b360207fffffffffffffffffffffffffffffffffffffffffffffffffffffffffffffffe0601f8401160186610382565b84523d5f602086013e5b5a810390811161020157600193604051926101d784610366565b15158352602083015260408201526101ef82886103db565b526101fa81876103db565b5001610106565b7f4e487b71000000000000000000000000000000000000000000000000000000005f52601160045260245ffd5b7f4e487b71000000000000000000000000000000000000000000000000000000005f52604160045260245ffd5b6060926101bd565b846040518091602082016020835281518091526040830190602060408260051b8601019301915f905b82821061029b57505050500390f35b919360206080827fffffffffffffffffffffffffffffffffffffffffffffffffffffffffffffffc060019597998495030186527fffffffffffffffffffffffffffffffffffffffffffffffffffffffffffffffe0601f8460408c518051151586528281015160608488015280519384918260608a0152018888015e5f8784880101520151604085015201160101960192019201859493919261028c565b60209060405161034781610366565b5f81526060838201525f6040820152828289010152016100fb565b5f80fd5b6060810190811067ffffffffffffffff82111761022e57604052565b90601f7fffffffffffffffffffffffffffffffffffffffffffffffffffffffffffffffe0910116810190811067ffffffffffffffff82111761022e57604052565b67ffffffffffffffff811161022e5760051b60200190565b80518210156103ef5760209160051b010190565b7f4e487b71000000000000000000000000000000000000000000000000000000005f52603260045260245ffdfea26469706673582212201334a75b4808f44341397c85ebdf601de0ae109991656e2855b8ddfb7d836a2164736f6c634300081e0033","linkReferences":{}},"methodIdentifiers":{"batchTest(address,uint256[])":"09205567"},"id":0}