{"abi":[{"type":"function","name":"batchTest","inputs":[{"name":"target","type":"address","internalType":"address"},{"name":"quantities","type":"uint256[]","internalType":"uint256[]"}],"outputs":[{"name":"results","type":"tuple[]","internalType":"struct BatchGradientTestV3.TestResult[]","components":[{"name":"success","type":"bool","internalType":"bool"},{"name":"returnData","type":"bytes","internalType":"bytes"},{"name":"gasUsed","type":"uint256","internalType":"uint256"}]}],"stateMutability":"nonpayable"},{"type":"function","name":"binarySearch","inputs":[{"name":"target","type":"address","internalType":"address"},{"name":"lowerBound","type":"uint256","internalType":"uint256"},{"name":"upperBound","type":"uint256","internalType":"uint256"},{"name":"maxIterations","type":"uint256","internalType":"uint256"},{"name":"initialValue","type":"uint256","internalType":"uint256"}],"outputs":[{"name":"result","type":"tuple","internalType":"struct BatchGradientTestV3.BinarySearchResult","components":[{"name":"bestQuantity","type":"uint256","internalType":"uint256"},{"name":"bestProfit","type":"int256","internalType":"int256"},{"name":"testsPerformed","type":"uint256","internalType":"uint256"}]}],"stateMutability":"nonpayable"}],"bytecode":{"object":"0x60808060405234601557610987908161001a8239f35b5f80fdfe60806040526004361015610011575f80fd5b5f3560e01c806309205567146100345763409c47181461002f575f80fd5b61015c565b346100ae5760403660031901126100ae5761004d6100b2565b60243567ffffffffffffffff81116100ae57366023820112156100ae57806004013567ffffffffffffffff81116100ae573660248260051b840101116100ae576100aa92602461009e93019061033b565b604051918291826100c8565b0390f35b5f80fd5b600435906001600160a01b03821682036100ae57565b602081016020825282518091526040820191602060408360051b8301019401925f915b8383106100fa57505050505090565b90919293946020806080600193603f198682030187528260408b51805115158452828101516060848601528051938491826060880152018686015e5f84840186015201516040830152601f01601f1916010197019594919091019201906100eb565b346100ae5760a03660031901126100ae57606061018d61017a6100b2565b60243560443560643591608435936104b7565b6040805191805183526020810151602084015201516040820152f35b634e487b7160e01b5f52604160045260245ffd5b6060810190811067ffffffffffffffff8211176101d957604052565b6101a9565b90601f8019910116810190811067ffffffffffffffff8211176101d957604052565b6040519061020f6060836101de565b565b67ffffffffffffffff81116101d95760051b60200190565b9061023382610211565b61024060405191826101de565b8281528092610251601f1991610211565b01905f5b82811061026157505050565b602090604051610270816101bd565b5f81526060838201525f604082015282828501015201610255565b634e487b7160e01b5f52603260045260245ffd5b91908110156102af5760051b0190565b61028b565b3d156102ee573d9067ffffffffffffffff82116101d957604051916102e3601f8201601f1916602001846101de565b82523d5f602084013e565b606090565b634e487b7160e01b5f52601160045260245ffd5b5f1981019190821161031557565b6102f3565b9190820391821161031557565b80518210156102af5760209160051b010190565b61034483610229565b925f5b818110610355575050505090565b80610382610372610369600194868961029f565b3562ffffff1690565b60e81b6001600160e81b03191690565b6040515f602082018181526001600160e81b031993909316602183015260048252909181906103b26024856101de565b5a93519082895af1906103ce6103c66102b4565b915a9061031a565b906103e16103da610200565b9315158452565b602083015260408201526103f58288610327565b526104008187610327565b5001610347565b60405190610414826101bd565b5f6040838281528260208201520152565b6040519061043460e0836101de565b60e0368337565b9060078110156102af5760051b0190565b908160011b918083046002149015171561031557565b908160021b918083046004149015171561031557565b9060068202918083046006149015171561031557565b5f1981146103155760010190565b906001820180921161031557565b9190820180921161031557565b9493949290926104c5610407565b9284845260208401925f84526105286104dc610425565b98808a526104ea8160011c90565b60208b01526104f98160021c90565b60408b01526006810460608b01526105108161044c565b60808b015261051e81610462565b60a08b0152610478565b60c08901525f5b60078110806108e3575b156105a5578061054c610562928b61043b565b51888110158061059b575b610567575b5061048e565b61052f565b61057181876108f0565b6040890161057f815161048e565b905287518113610590575b5061055c565b875287525f8061058a565b5084811115610557565b5095949196509151156108da576105c66105bf828461031a565b600a900490565b835181808211156108d2576105da9161031a565b90836105e78287516104aa565b10156108cb576105f89085516104aa565b90604085018051925b888410806108c2575b156108b55761062261061c82856104aa565b60011c90565b9061062d828c6108f0565b610637845161048e565b84526020890190815181136108aa575b505f878411610886575b5f9089851061085f575b825180821380610856575b1561068857505050505061067c61068291610307565b9361048e565b92610601565b82989793949813918261084c575b5050156106b15750506106ab6106829161049c565b9261048e565b9091506106cf6106c9828796979d9b9d9c9a9c61031a565b60021c90565b91826106e3575b5050505050505050505090565b6106f061061c86846104aa565b6106fa84896104aa565b106107bb575b61070d61061c86846104aa565b610717848a61031a565b11156106d65761073c6107368461073161061c89876104aa565b6104aa565b8b6108f0565b90610747855161048e565b85528051821361075757506106d6565b61061c61078e61061c9c9e9c888f9d9f966107a1989761079b9761079597526107878961073161061c86866104aa565b90526104aa565b96876104aa565b9161044c565b906104aa565b928584116107b3575b6106829061048e565b8593506107aa565b6107d4610736846107cf61061c89876104aa565b61031a565b6107de855161048e565b8552815181136107ee5750610700565b61061c61082661061c9c9e9c888f9d9f61081e896107cf61061c8b9f9e6108339d9c6107959b61082d9d526104aa565b90528a6104aa565b80986104aa565b9061031a565b91848310610844576106829061048e565b8492506107aa565b1390505f80610696565b50828213610666565b90506108748d61086e8661049c565b906108f0565b9061087f865161048e565b865261065b565b5061089961089384610307565b8d6108f0565b6108a3855161048e565b8552610651565b81528289525f610647565b5050505050509150915090565b5080831061060a565b50826105f8565b5050816105da565b50509150915090565b5081604087015110610539565b6040515f6020820181815260e89490941b6001600160e81b0319166021830152600482529283929183906109256024826101de565b51925af16109316102b4565b901561093c57505f90565b805160201161094c576020015190565b505f9056fea2646970667358221220b39a2c014df7966a1e79dd448bfa3778d7a7aa7a35a5c1e315302cb28071ba3464736f6c634300081e0033","linkReferences":{}},"methodIdentifiers":{"batchTest(address,uint256[])":"09205567","binarySearch(address,uint256,uint256,uint256,uint256)":"409c4718"},"id":2}